{
  "contractName": "Intermediary",
  "abi": [
    {
      "inputs": [
        {
          "internalType": "contract NeoToken",
          "name": "_neoToken",
          "type": "address"
        },
        {
          "internalType": "contract USDTJ",
          "name": "_usdtj",
          "type": "address"
        }
      ],
      "stateMutability": "nonpayable",
      "type": "constructor"
    },
    {
      "inputs": [
        {
          "internalType": "address",
          "name": "",
          "type": "address"
        }
      ],
      "name": "depositStakingBalance",
      "outputs": [
        {
          "internalType": "uint256",
          "name": "",
          "type": "uint256"
        }
      ],
      "stateMutability": "view",
      "type": "function",
      "constant": true
    },
    {
      "inputs": [
        {
          "internalType": "uint256",
          "name": "",
          "type": "uint256"
        }
      ],
      "name": "investors",
      "outputs": [
        {
          "internalType": "address",
          "name": "",
          "type": "address"
        }
      ],
      "stateMutability": "view",
      "type": "function",
      "constant": true
    },
    {
      "inputs": [
        {
          "internalType": "address",
          "name": "",
          "type": "address"
        }
      ],
      "name": "isStaking",
      "outputs": [
        {
          "internalType": "bool",
          "name": "",
          "type": "bool"
        }
      ],
      "stateMutability": "view",
      "type": "function",
      "constant": true
    },
    {
      "inputs": [],
      "name": "name",
      "outputs": [
        {
          "internalType": "string",
          "name": "",
          "type": "string"
        }
      ],
      "stateMutability": "view",
      "type": "function",
      "constant": true
    },
    {
      "inputs": [],
      "name": "neoToken",
      "outputs": [
        {
          "internalType": "contract NeoToken",
          "name": "",
          "type": "address"
        }
      ],
      "stateMutability": "view",
      "type": "function",
      "constant": true
    },
    {
      "inputs": [],
      "name": "owner",
      "outputs": [
        {
          "internalType": "address",
          "name": "",
          "type": "address"
        }
      ],
      "stateMutability": "view",
      "type": "function",
      "constant": true
    },
    {
      "inputs": [
        {
          "internalType": "address",
          "name": "",
          "type": "address"
        }
      ],
      "name": "reward",
      "outputs": [
        {
          "internalType": "uint256",
          "name": "",
          "type": "uint256"
        }
      ],
      "stateMutability": "view",
      "type": "function",
      "constant": true
    },
    {
      "inputs": [
        {
          "internalType": "address",
          "name": "",
          "type": "address"
        }
      ],
      "name": "staked",
      "outputs": [
        {
          "internalType": "bool",
          "name": "",
          "type": "bool"
        }
      ],
      "stateMutability": "view",
      "type": "function",
      "constant": true
    },
    {
      "inputs": [],
      "name": "usdtj",
      "outputs": [
        {
          "internalType": "contract USDTJ",
          "name": "",
          "type": "address"
        }
      ],
      "stateMutability": "view",
      "type": "function",
      "constant": true
    },
    {
      "inputs": [
        {
          "internalType": "uint256",
          "name": "_amount",
          "type": "uint256"
        }
      ],
      "name": "depositToken",
      "outputs": [],
      "stateMutability": "nonpayable",
      "type": "function"
    },
    {
      "inputs": [],
      "name": "tokenRewards",
      "outputs": [],
      "stateMutability": "nonpayable",
      "type": "function"
    },
    {
      "inputs": [],
      "name": "unstakeTokens",
      "outputs": [],
      "stateMutability": "nonpayable",
      "type": "function"
    }
  ],
  "bytecode": "0x60806040526040518060400160405280600c81526020017f496e7465726d6564696172790000000000000000000000000000000000000000815250600090816200004a9190620003c3565b503480156200005857600080fd5b50604051620017333803806200173383398181016040528101906200007e91906200056d565b81600260006101000a81548173ffffffffffffffffffffffffffffffffffffffff021916908373ffffffffffffffffffffffffffffffffffffffff16021790555080600360006101000a81548173ffffffffffffffffffffffffffffffffffffffff021916908373ffffffffffffffffffffffffffffffffffffffff16021790555033600160006101000a81548173ffffffffffffffffffffffffffffffffffffffff021916908373ffffffffffffffffffffffffffffffffffffffff1602179055505050620005b4565b600081519050919050565b7f4e487b7100000000000000000000000000000000000000000000000000000000600052604160045260246000fd5b7f4e487b7100000000000000000000000000000000000000000000000000000000600052602260045260246000fd5b60006002820490506001821680620001cb57607f821691505b602082108103620001e157620001e062000183565b5b50919050565b60008190508160005260206000209050919050565b60006020601f8301049050919050565b600082821b905092915050565b6000600883026200024b7fffffffffffffffffffffffffffffffffffffffffffffffffffffffffffffffff826200020c565b6200025786836200020c565b95508019841693508086168417925050509392505050565b6000819050919050565b6000819050919050565b6000620002a46200029e62000298846200026f565b62000279565b6200026f565b9050919050565b6000819050919050565b620002c08362000283565b620002d8620002cf82620002ab565b84845462000219565b825550505050565b600090565b620002ef620002e0565b620002fc818484620002b5565b505050565b5b81811015620003245762000318600082620002e5565b60018101905062000302565b5050565b601f82111562000373576200033d81620001e7565b6200034884620001fc565b8101602085101562000358578190505b620003706200036785620001fc565b83018262000301565b50505b505050565b600082821c905092915050565b6000620003986000198460080262000378565b1980831691505092915050565b6000620003b3838362000385565b9150826002028217905092915050565b620003ce8262000149565b67ffffffffffffffff811115620003ea57620003e962000154565b5b620003f68254620001b2565b6200040382828562000328565b600060209050601f8311600181146200043b576000841562000426578287015190505b620004328582620003a5565b865550620004a2565b601f1984166200044b86620001e7565b60005b8281101562000475578489015182556001820191506020850194506020810190506200044e565b8683101562000495578489015162000491601f89168262000385565b8355505b6001600288020188555050505b505050505050565b600080fd5b600073ffffffffffffffffffffffffffffffffffffffff82169050919050565b6000620004dc82620004af565b9050919050565b6000620004f082620004cf565b9050919050565b6200050281620004e3565b81146200050e57600080fd5b50565b6000815190506200052281620004f7565b92915050565b60006200053582620004cf565b9050919050565b620005478162000528565b81146200055357600080fd5b50565b60008151905062000567816200053c565b92915050565b60008060408385031215620005875762000586620004aa565b5b6000620005978582860162000511565b9250506020620005aa8582860162000556565b9150509250929050565b61116f80620005c46000396000f3fe608060405234801561001057600080fd5b50600436106100b45760003560e01c8063686490a411610071578063686490a41461018d5780636f49712b146101ab5780638da5cb5b146101db57806398807d84146101f9578063a5ce413b14610229578063c5f0d17014610233576100b4565b806306fdde03146100b9578063091c76f5146100d75780632ee2e5c1146100e15780633feb5f2b146101115780636215be77146101415780636353586b1461015d575b600080fd5b6100c1610251565b6040516100ce9190610b01565b60405180910390f35b6100df6102df565b005b6100fb60048036038101906100f69190610b86565b6104d5565b6040516101089190610bcc565b60405180910390f35b61012b60048036038101906101269190610c13565b6104ed565b6040516101389190610c4f565b60405180910390f35b61015b60048036038101906101569190610c13565b61052c565b005b61017760048036038101906101729190610b86565b6107df565b6040516101849190610bcc565b60405180910390f35b6101956107f7565b6040516101a29190610cc9565b60405180910390f35b6101c560048036038101906101c09190610b86565b61081d565b6040516101d29190610cff565b60405180910390f35b6101e361083d565b6040516101f09190610c4f565b60405180910390f35b610213600480360381019061020e9190610b86565b610863565b6040516102209190610cff565b60405180910390f35b610231610883565b005b61023b610a4b565b6040516102489190610d3b565b60405180910390f35b6000805461025e90610d85565b80601f016020809104026020016040519081016040528092919081815260200182805461028a90610d85565b80156102d75780601f106102ac576101008083540402835291602001916102d7565b820191906000526020600020905b8154815290600101906020018083116102ba57829003601f168201915b505050505081565b600160009054906101000a900473ffffffffffffffffffffffffffffffffffffffff1673ffffffffffffffffffffffffffffffffffffffff163373ffffffffffffffffffffffffffffffffffffffff161461036f576040517f08c379a000000000000000000000000000000000000000000000000000000000815260040161036690610e02565b60405180910390fd5b60005b6004805490508110156104d25760006004828154811061039557610394610e22565b5b9060005260206000200160009054906101000a900473ffffffffffffffffffffffffffffffffffffffff1690506000600a600560008473ffffffffffffffffffffffffffffffffffffffff1673ffffffffffffffffffffffffffffffffffffffff168152602001908152602001600020546104109190610eaf565b905060008111156104bd57600260009054906101000a900473ffffffffffffffffffffffffffffffffffffffff1673ffffffffffffffffffffffffffffffffffffffff1663a9059cbb83836040518363ffffffff1660e01b8152600401610478929190610ee0565b6020604051808303816000875af1158015610497573d6000803e3d6000fd5b505050506040513d601f19601f820116820180604052508101906104bb9190610f35565b505b505080806104ca90610f62565b915050610372565b50565b60056020528060005260406000206000915090505481565b600481815481106104fd57600080fd5b906000526020600020016000915054906101000a900473ffffffffffffffffffffffffffffffffffffffff1681565b600081111561063357600360009054906101000a900473ffffffffffffffffffffffffffffffffffffffff1673ffffffffffffffffffffffffffffffffffffffff166323b872dd3330846040518463ffffffff1660e01b815260040161059493929190610faa565b6020604051808303816000875af11580156105b3573d6000803e3d6000fd5b505050506040513d601f19601f820116820180604052508101906105d79190610f35565b5080600560003373ffffffffffffffffffffffffffffffffffffffff1673ffffffffffffffffffffffffffffffffffffffff16815260200190815260200160002060008282546106279190610fe1565b92505081905550610677565b60008111610676576040517f08c379a000000000000000000000000000000000000000000000000000000000815260040161066d90611087565b60405180910390fd5b5b600660003373ffffffffffffffffffffffffffffffffffffffff1673ffffffffffffffffffffffffffffffffffffffff16815260200190815260200160002060009054906101000a900460ff1661072c576004339080600181540180825580915050600190039060005260206000200160009091909190916101000a81548173ffffffffffffffffffffffffffffffffffffffff021916908373ffffffffffffffffffffffffffffffffffffffff1602179055505b6001600760003373ffffffffffffffffffffffffffffffffffffffff1673ffffffffffffffffffffffffffffffffffffffff16815260200190815260200160002060006101000a81548160ff0219169083151502179055506001600660003373ffffffffffffffffffffffffffffffffffffffff1673ffffffffffffffffffffffffffffffffffffffff16815260200190815260200160002060006101000a81548160ff02191690831515021790555050565b60086020528060005260406000206000915090505481565b600360009054906101000a900473ffffffffffffffffffffffffffffffffffffffff1681565b60076020528060005260406000206000915054906101000a900460ff1681565b600160009054906101000a900473ffffffffffffffffffffffffffffffffffffffff1681565b60066020528060005260406000206000915054906101000a900460ff1681565b6000600560003373ffffffffffffffffffffffffffffffffffffffff1673ffffffffffffffffffffffffffffffffffffffff1681526020019081526020016000205490506000811161090a576040517f08c379a000000000000000000000000000000000000000000000000000000000815260040161090190611119565b60405180910390fd5b600360009054906101000a900473ffffffffffffffffffffffffffffffffffffffff1673ffffffffffffffffffffffffffffffffffffffff1663a9059cbb33836040518363ffffffff1660e01b8152600401610967929190610ee0565b6020604051808303816000875af1158015610986573d6000803e3d6000fd5b505050506040513d601f19601f820116820180604052508101906109aa9190610f35565b506000600560003373ffffffffffffffffffffffffffffffffffffffff1673ffffffffffffffffffffffffffffffffffffffff168152602001908152602001600020819055506000600760003373ffffffffffffffffffffffffffffffffffffffff1673ffffffffffffffffffffffffffffffffffffffff16815260200190815260200160002060006101000a81548160ff02191690831515021790555050565b600260009054906101000a900473ffffffffffffffffffffffffffffffffffffffff1681565b600081519050919050565b600082825260208201905092915050565b60005b83811015610aab578082015181840152602081019050610a90565b60008484015250505050565b6000601f19601f8301169050919050565b6000610ad382610a71565b610add8185610a7c565b9350610aed818560208601610a8d565b610af681610ab7565b840191505092915050565b60006020820190508181036000830152610b1b8184610ac8565b905092915050565b600080fd5b600073ffffffffffffffffffffffffffffffffffffffff82169050919050565b6000610b5382610b28565b9050919050565b610b6381610b48565b8114610b6e57600080fd5b50565b600081359050610b8081610b5a565b92915050565b600060208284031215610b9c57610b9b610b23565b5b6000610baa84828501610b71565b91505092915050565b6000819050919050565b610bc681610bb3565b82525050565b6000602082019050610be16000830184610bbd565b92915050565b610bf081610bb3565b8114610bfb57600080fd5b50565b600081359050610c0d81610be7565b92915050565b600060208284031215610c2957610c28610b23565b5b6000610c3784828501610bfe565b91505092915050565b610c4981610b48565b82525050565b6000602082019050610c646000830184610c40565b92915050565b6000819050919050565b6000610c8f610c8a610c8584610b28565b610c6a565b610b28565b9050919050565b6000610ca182610c74565b9050919050565b6000610cb382610c96565b9050919050565b610cc381610ca8565b82525050565b6000602082019050610cde6000830184610cba565b92915050565b60008115159050919050565b610cf981610ce4565b82525050565b6000602082019050610d146000830184610cf0565b92915050565b6000610d2582610c96565b9050919050565b610d3581610d1a565b82525050565b6000602082019050610d506000830184610d2c565b92915050565b7f4e487b7100000000000000000000000000000000000000000000000000000000600052602260045260246000fd5b60006002820490506001821680610d9d57607f821691505b602082108103610db057610daf610d56565b5b50919050565b7f63616c6c206f6e6c79206f776e65720000000000000000000000000000000000600082015250565b6000610dec600f83610a7c565b9150610df782610db6565b602082019050919050565b60006020820190508181036000830152610e1b81610ddf565b9050919050565b7f4e487b7100000000000000000000000000000000000000000000000000000000600052603260045260246000fd5b7f4e487b7100000000000000000000000000000000000000000000000000000000600052601260045260246000fd5b7f4e487b7100000000000000000000000000000000000000000000000000000000600052601160045260246000fd5b6000610eba82610bb3565b9150610ec583610bb3565b925082610ed557610ed4610e51565b5b828204905092915050565b6000604082019050610ef56000830185610c40565b610f026020830184610bbd565b9392505050565b610f1281610ce4565b8114610f1d57600080fd5b50565b600081519050610f2f81610f09565b92915050565b600060208284031215610f4b57610f4a610b23565b5b6000610f5984828501610f20565b91505092915050565b6000610f6d82610bb3565b91507fffffffffffffffffffffffffffffffffffffffffffffffffffffffffffffffff8203610f9f57610f9e610e80565b5b600182019050919050565b6000606082019050610fbf6000830186610c40565b610fcc6020830185610c40565b610fd96040830184610bbd565b949350505050565b6000610fec82610bb3565b9150610ff783610bb3565b925082820190508082111561100f5761100e610e80565b5b92915050565b7f54686520616d6f756e74206d757374206265206d6f7265207468616e207a657260008201527f6f00000000000000000000000000000000000000000000000000000000000000602082015250565b6000611071602183610a7c565b915061107c82611015565b604082019050919050565b600060208201905081810360008301526110a081611064565b9050919050565b7f7374616b696e672062616c616e63652063616e6e6f74206265206c657373207460008201527f68616e207a65726f000000000000000000000000000000000000000000000000602082015250565b6000611103602883610a7c565b915061110e826110a7565b604082019050919050565b60006020820190508181036000830152611132816110f6565b905091905056fea2646970667358221220830c6b536bd26649c78a8d71a30ce145e431145e0b6580ba4c70811fcf7103bf64736f6c63430008110033",
  "immutableReferences": {},
  "source": "// SPDX-License-Identifier: MIT\npragma solidity ^0.8.17;\nimport './NeoToken.sol';\nimport './USDTJ.sol';\n\ncontract Intermediary {\n  string public name = 'Intermediary';\n  address public owner;\n  NeoToken public neoToken;\n  USDTJ public usdtj;\n\n  address[] public investors;\n\n  mapping(address => uint) public depositStakingBalance;\n  mapping(address => bool) public staked;\n  mapping(address => bool) public isStaking;\n  mapping(address => uint)public reward;\n\n\n  constructor(NeoToken _neoToken, USDTJ _usdtj)  {\n    neoToken = _neoToken;\n    usdtj = _usdtj;\n    owner = msg.sender;\n  }\n\n\n  function depositToken (uint _amount) public {\n    if(_amount > 0) {\n       usdtj.transferFrom(msg.sender, address(this), _amount);\n    //put to stake\n    depositStakingBalance[msg.sender] +=  _amount;\n    }\n\n    else {\n    require(_amount > 0, 'The amount must be more than zero');\n    }\n     if (!staked[msg.sender]) {\n      investors.push(msg.sender);\n      // update stack balance\n     }\n    {\n      isStaking[msg.sender]= true;\n      staked[msg.sender]= true;\n    }\n\n  }\n\n      // transfer and reward\n  function tokenRewards() public {\n    require(msg.sender == owner, 'call only owner'); // must to be oly owner\n      for (uint i=0; i<investors.length; i++){\n        address drawer = investors[i]; // track address investors\n        uint balance = depositStakingBalance[drawer] / 10 ; // reward  10%\n        if(balance > 0){\n        neoToken.transfer(drawer, balance);// transfer token  //\n        }\n\n      }\n\n  }\n  // unstake tokens\n  function unstakeTokens() public {\n    uint balance = depositStakingBalance[msg.sender];\n    // require the amount to be greater than zero\n    require(balance > 0, 'staking balance cannot be less than zero');\n\n    // transfer the tokens to the specified contract address from our bank\n    usdtj.transfer(msg.sender, balance);\n\n    // reset staking balance\n    depositStakingBalance[msg.sender] = 0;\n\n    // Update Staking Status\n    isStaking[msg.sender] = false;\n\n  }\n}\n",
  "sourcePath": "/Users/blockchain/Project_Solidity_with_OpenZeppiling/contracts/Intermedary.sol",
  "compiler": {
    "name": "solc",
    "version": "0.8.17+commit.8df45f5f.Emscripten.clang"
  },
  "schemaVersion": "3.4.10",
  "updatedAt": "2022-11-02T07:18:14.570Z",
  "networkType": "ethereum",
  "devdoc": {
    "kind": "dev",
    "methods": {},
    "version": 1
  },
  "userdoc": {
    "kind": "user",
    "methods": {},
    "version": 1
  }
}